{
  "contractName": "Marketplace",
  "abi": [
    {
      "constant": true,
      "inputs": [],
      "name": "productIndex",
      "outputs": [
        {
          "name": "",
          "type": "uint256"
        }
      ],
      "payable": false,
      "stateMutability": "view",
      "type": "function"
    },
    {
      "inputs": [],
      "payable": false,
      "stateMutability": "nonpayable",
      "type": "constructor"
    },
    {
      "payable": true,
      "stateMutability": "payable",
      "type": "fallback"
    },
    {
      "anonymous": false,
      "inputs": [
        {
          "indexed": false,
          "name": "_productId",
          "type": "uint256"
        },
        {
          "indexed": false,
          "name": "_name",
          "type": "string"
        },
        {
          "indexed": false,
          "name": "_category",
          "type": "string"
        },
        {
          "indexed": false,
          "name": "_imageLink",
          "type": "string"
        },
        {
          "indexed": false,
          "name": "_descLink",
          "type": "string"
        },
        {
          "indexed": false,
          "name": "_price",
          "type": "uint256"
        },
        {
          "indexed": false,
          "name": "_productCondition",
          "type": "uint256"
        }
      ],
      "name": "LogNewProduct",
      "type": "event"
    },
    {
      "anonymous": false,
      "inputs": [
        {
          "indexed": false,
          "name": "_productId",
          "type": "uint256"
        },
        {
          "indexed": false,
          "name": "_status",
          "type": "uint256"
        }
      ],
      "name": "LogProductSell",
      "type": "event"
    },
    {
      "constant": false,
      "inputs": [
        {
          "name": "_name",
          "type": "string"
        },
        {
          "name": "_category",
          "type": "string"
        },
        {
          "name": "_imageLink",
          "type": "string"
        },
        {
          "name": "_descLink",
          "type": "string"
        },
        {
          "name": "_price",
          "type": "uint256"
        },
        {
          "name": "_sellerContact",
          "type": "string"
        },
        {
          "name": "_productCondition",
          "type": "uint256"
        },
        {
          "name": "_quantity",
          "type": "uint256"
        }
      ],
      "name": "newProduct",
      "outputs": [],
      "payable": false,
      "stateMutability": "nonpayable",
      "type": "function"
    },
    {
      "constant": true,
      "inputs": [
        {
          "name": "_productId",
          "type": "uint256"
        }
      ],
      "name": "getProduct",
      "outputs": [
        {
          "name": "",
          "type": "uint256"
        },
        {
          "name": "",
          "type": "string"
        },
        {
          "name": "",
          "type": "string"
        },
        {
          "name": "",
          "type": "string"
        },
        {
          "name": "",
          "type": "string"
        },
        {
          "name": "",
          "type": "uint256"
        },
        {
          "name": "",
          "type": "uint256"
        },
        {
          "name": "",
          "type": "uint8"
        },
        {
          "name": "",
          "type": "uint8"
        }
      ],
      "payable": false,
      "stateMutability": "view",
      "type": "function"
    },
    {
      "constant": true,
      "inputs": [],
      "name": "getProducts",
      "outputs": [
        {
          "name": "",
          "type": "uint256[]"
        }
      ],
      "payable": false,
      "stateMutability": "view",
      "type": "function"
    },
    {
      "constant": true,
      "inputs": [
        {
          "name": "_productId",
          "type": "uint256"
        },
        {
          "name": "_quantity",
          "type": "uint256"
        }
      ],
      "name": "getPrice",
      "outputs": [
        {
          "name": "",
          "type": "uint256"
        }
      ],
      "payable": false,
      "stateMutability": "view",
      "type": "function"
    },
    {
      "constant": true,
      "inputs": [
        {
          "name": "_productId",
          "type": "uint256"
        },
        {
          "name": "_newQuantity",
          "type": "uint256"
        }
      ],
      "name": "update",
      "outputs": [],
      "payable": false,
      "stateMutability": "view",
      "type": "function"
    },
    {
      "constant": false,
      "inputs": [
        {
          "name": "_productId",
          "type": "uint256"
        },
        {
          "name": "_buyerContact",
          "type": "string"
        },
        {
          "name": "_quantity",
          "type": "uint256"
        }
      ],
      "name": "buy",
      "outputs": [
        {
          "name": "",
          "type": "bool"
        }
      ],
      "payable": true,
      "stateMutability": "payable",
      "type": "function"
    },
    {
      "constant": false,
      "inputs": [
        {
          "name": "_productId",
          "type": "uint256"
        },
        {
          "name": "_quantity",
          "type": "uint256"
        }
      ],
      "name": "withdraw",
      "outputs": [],
      "payable": false,
      "stateMutability": "nonpayable",
      "type": "function"
    }
  ],
  "bytecode": "0x6060604052341561000f57600080fd5b6000600181905550336000806101000a81548173ffffffffffffffffffffffffffffffffffffffff021916908373ffffffffffffffffffffffffffffffffffffffff160217905550612986806100666000396000f30060606040526004361061008e576000357c0100000000000000000000000000000000000000000000000000000000900463ffffffff1680632fb565e81461009d578063441a3e70146100c95780635cf4ee91146100f55780637ed7021a14610135578063b9db15b4146102b9578063c29b2f20146104d8578063c897d5a614610542578063cec02c8f1461056b575b6000151561009b57600080fd5b005b34156100a857600080fd5b6100c760048080359060200190919080359060200190919050506105e7565b005b34156100d457600080fd5b6100f36004808035906020019091908035906020019091905050610bca565b005b341561010057600080fd5b61011f600480803590602001909190803590602001909190505061121d565b6040518082815260200191505060405180910390f35b341561014057600080fd5b6102b7600480803590602001908201803590602001908080601f0160208091040260200160405190810160405280939291908181526020018383808284378201915050505050509190803590602001908201803590602001908080601f0160208091040260200160405190810160405280939291908181526020018383808284378201915050505050509190803590602001908201803590602001908080601f0160208091040260200160405190810160405280939291908181526020018383808284378201915050505050509190803590602001908201803590602001908080601f0160208091040260200160405190810160405280939291908181526020018383808284378201915050505050509190803590602001909190803590602001908201803590602001908080601f016020809104026020016040519081016040528093929190818152602001838380828437820191505050505050919080359060200190919080359060200190919050506117cf565b005b34156102c457600080fd5b6102da6004808035906020019091905050611d9d565b604051808a81526020018060200180602001806020018060200189815260200188815260200187600181111561030c57fe5b60ff16815260200186600181111561032057fe5b60ff16815260200185810385528d818151815260200191508051906020019080838360005b83811015610360578082015181840152602081019050610345565b50505050905090810190601f16801561038d5780820380516001836020036101000a031916815260200191505b5085810384528c818151815260200191508051906020019080838360005b838110156103c65780820151818401526020810190506103ab565b50505050905090810190601f1680156103f35780820380516001836020036101000a031916815260200191505b5085810383528b818151815260200191508051906020019080838360005b8381101561042c578082015181840152602081019050610411565b50505050905090810190601f1680156104595780820380516001836020036101000a031916815260200191505b5085810382528a818151815260200191508051906020019080838360005b83811015610492578082015181840152602081019050610477565b50505050905090810190601f1680156104bf5780820380516001836020036101000a031916815260200191505b509d505050505050505050505050505060405180910390f35b34156104e357600080fd5b6104eb6123c5565b6040518080602001828103825283818151815260200191508051906020019060200280838360005b8381101561052e578082015181840152602081019050610513565b505050509050019250505060405180910390f35b341561054d57600080fd5b610555612423565b6040518082815260200191505060405180910390f35b6105cd600480803590602001909190803590602001908201803590602001908080601f01602080910402602001604051908101604052809392919081815260200183838082843782019150505050505091908035906020019091905050612429565b604051808215151515815260200191505060405180910390f35b60006105f16126f7565b6004600085815260200190815260200160002060009054906101000a900473ffffffffffffffffffffffffffffffffffffffff1691503373ffffffffffffffffffffffffffffffffffffffff168273ffffffffffffffffffffffffffffffffffffffff1614151561066157600080fd5b600360008373ffffffffffffffffffffffffffffffffffffffff1673ffffffffffffffffffffffffffffffffffffffff16815260200190815260200160002060008581526020019081526020016000206101c0604051908101604052908160008201548152602001600182018054600181600116156101000203166002900480601f0160208091040260200160405190810160405280929190818152602001828054600181600116156101000203166002900480156107615780601f1061073657610100808354040283529160200191610761565b820191906000526020600020905b81548152906001019060200180831161074457829003601f168201915b50505050508152602001600282018054600181600116156101000203166002900480601f0160208091040260200160405190810160405280929190818152602001828054600181600116156101000203166002900480156108035780601f106107d857610100808354040283529160200191610803565b820191906000526020600020905b8154815290600101906020018083116107e657829003601f168201915b50505050508152602001600382018054600181600116156101000203166002900480601f0160208091040260200160405190810160405280929190818152602001828054600181600116156101000203166002900480156108a55780601f1061087a576101008083540402835291602001916108a5565b820191906000526020600020905b81548152906001019060200180831161088857829003601f168201915b50505050508152602001600482018054600181600116156101000203166002900480601f0160208091040260200160405190810160405280929190818152602001828054600181600116156101000203166002900480156109475780601f1061091c57610100808354040283529160200191610947565b820191906000526020600020905b81548152906001019060200180831161092a57829003601f168201915b5050505050815260200160058201548152602001600682015481526020016007820160009054906101000a900460ff16600181111561098257fe5b600181111561098d57fe5b81526020016007820160019054906101000a900473ffffffffffffffffffffffffffffffffffffffff1673ffffffffffffffffffffffffffffffffffffffff1673ffffffffffffffffffffffffffffffffffffffff168152602001600882018054600181600116156101000203166002900480601f016020809104026020016040519081016040528092919081815260200182805460018160011615610100020316600290048015610a805780601f10610a5557610100808354040283529160200191610a80565b820191906000526020600020905b815481529060010190602001808311610a6357829003601f168201915b505050505081526020016009820160009054906101000a900473ffffffffffffffffffffffffffffffffffffffff1673ffffffffffffffffffffffffffffffffffffffff1673ffffffffffffffffffffffffffffffffffffffff168152602001600a82018054600181600116156101000203166002900480601f016020809104026020016040519081016040528092919081815260200182805460018160011615610100020316600290048015610b785780601f10610b4d57610100808354040283529160200191610b78565b820191906000526020600020905b815481529060010190602001808311610b5b57829003601f168201915b50505050508152602001600b820160009054906101000a900460ff166001811115610b9f57fe5b6001811115610baa57fe5b8152602001600c820154815250509050828160c001818152505050505050565b6000610bd46126f7565b6004600085815260200190815260200160002060009054906101000a900473ffffffffffffffffffffffffffffffffffffffff1691503373ffffffffffffffffffffffffffffffffffffffff168273ffffffffffffffffffffffffffffffffffffffff16141515610c4457600080fd5b600360008373ffffffffffffffffffffffffffffffffffffffff1673ffffffffffffffffffffffffffffffffffffffff16815260200190815260200160002060008581526020019081526020016000206101c0604051908101604052908160008201548152602001600182018054600181600116156101000203166002900480601f016020809104026020016040519081016040528092919081815260200182805460018160011615610100020316600290048015610d445780601f10610d1957610100808354040283529160200191610d44565b820191906000526020600020905b815481529060010190602001808311610d2757829003601f168201915b50505050508152602001600282018054600181600116156101000203166002900480601f016020809104026020016040519081016040528092919081815260200182805460018160011615610100020316600290048015610de65780601f10610dbb57610100808354040283529160200191610de6565b820191906000526020600020905b815481529060010190602001808311610dc957829003601f168201915b50505050508152602001600382018054600181600116156101000203166002900480601f016020809104026020016040519081016040528092919081815260200182805460018160011615610100020316600290048015610e885780601f10610e5d57610100808354040283529160200191610e88565b820191906000526020600020905b815481529060010190602001808311610e6b57829003601f168201915b50505050508152602001600482018054600181600116156101000203166002900480601f016020809104026020016040519081016040528092919081815260200182805460018160011615610100020316600290048015610f2a5780601f10610eff57610100808354040283529160200191610f2a565b820191906000526020600020905b815481529060010190602001808311610f0d57829003601f168201915b5050505050815260200160058201548152602001600682015481526020016007820160009054906101000a900460ff166001811115610f6557fe5b6001811115610f7057fe5b81526020016007820160019054906101000a900473ffffffffffffffffffffffffffffffffffffffff1673ffffffffffffffffffffffffffffffffffffffff1673ffffffffffffffffffffffffffffffffffffffff168152602001600882018054600181600116156101000203166002900480601f0160208091040260200160405190810160405280929190818152602001828054600181600116156101000203166002900480156110635780601f1061103857610100808354040283529160200191611063565b820191906000526020600020905b81548152906001019060200180831161104657829003601f168201915b505050505081526020016009820160009054906101000a900473ffffffffffffffffffffffffffffffffffffffff1673ffffffffffffffffffffffffffffffffffffffff1673ffffffffffffffffffffffffffffffffffffffff168152602001600a82018054600181600116156101000203166002900480601f01602080910402602001604051908101604052809291908181526020018280546001816001161561010002031660029004801561115b5780601f106111305761010080835404028352916020019161115b565b820191906000526020600020905b81548152906001019060200180831161113e57829003601f168201915b50505050508152602001600b820160009054906101000a900460ff16600181111561118257fe5b600181111561118d57fe5b8152602001600c82015481525050905082816101a00151101515156111b157600080fd5b6111c0816101a0015184612685565b816101a00181815250508173ffffffffffffffffffffffffffffffffffffffff166108fc6111f28360a001518661269e565b9081150290604051600060405180830381858888f19350505050151561121757600080fd5b50505050565b6000806112286126f7565b6004600086815260200190815260200160002060009054906101000a900473ffffffffffffffffffffffffffffffffffffffff169150600360008373ffffffffffffffffffffffffffffffffffffffff1673ffffffffffffffffffffffffffffffffffffffff16815260200190815260200160002060008681526020019081526020016000206101c0604051908101604052908160008201548152602001600182018054600181600116156101000203166002900480601f01602080910402602001604051908101604052809291908181526020018280546001816001161561010002031660029004801561135e5780601f106113335761010080835404028352916020019161135e565b820191906000526020600020905b81548152906001019060200180831161134157829003601f168201915b50505050508152602001600282018054600181600116156101000203166002900480601f0160208091040260200160405190810160405280929190818152602001828054600181600116156101000203166002900480156114005780601f106113d557610100808354040283529160200191611400565b820191906000526020600020905b8154815290600101906020018083116113e357829003601f168201915b50505050508152602001600382018054600181600116156101000203166002900480601f0160208091040260200160405190810160405280929190818152602001828054600181600116156101000203166002900480156114a25780601f10611477576101008083540402835291602001916114a2565b820191906000526020600020905b81548152906001019060200180831161148557829003601f168201915b50505050508152602001600482018054600181600116156101000203166002900480601f0160208091040260200160405190810160405280929190818152602001828054600181600116156101000203166002900480156115445780601f1061151957610100808354040283529160200191611544565b820191906000526020600020905b81548152906001019060200180831161152757829003601f168201915b5050505050815260200160058201548152602001600682015481526020016007820160009054906101000a900460ff16600181111561157f57fe5b600181111561158a57fe5b81526020016007820160019054906101000a900473ffffffffffffffffffffffffffffffffffffffff1673ffffffffffffffffffffffffffffffffffffffff1673ffffffffffffffffffffffffffffffffffffffff168152602001600882018054600181600116156101000203166002900480601f01602080910402602001604051908101604052809291908181526020018280546001816001161561010002031660029004801561167d5780601f106116525761010080835404028352916020019161167d565b820191906000526020600020905b81548152906001019060200180831161166057829003601f168201915b505050505081526020016009820160009054906101000a900473ffffffffffffffffffffffffffffffffffffffff1673ffffffffffffffffffffffffffffffffffffffff1673ffffffffffffffffffffffffffffffffffffffff168152602001600a82018054600181600116156101000203166002900480601f0160208091040260200160405190810160405280929190818152602001828054600181600116156101000203166002900480156117755780601f1061174a57610100808354040283529160200191611775565b820191906000526020600020905b81548152906001019060200180831161175857829003601f168201915b50505050508152602001600b820160009054906101000a900460ff16600181111561179c57fe5b60018111156117a757fe5b8152602001600c8201548152505090506117c58160a001518561269e565b9250505092915050565b6117d76126f7565b3373ffffffffffffffffffffffffffffffffffffffff16600073ffffffffffffffffffffffffffffffffffffffff161415151561181357600080fd5b60008511151561182257600080fd5b60008211151561183157600080fd5b600180600082825401925050819055506101c06040519081016040528060015481526020018a81526020018981526020018881526020018781526020018681526020018381526020016000600181111561188757fe5b81526020013373ffffffffffffffffffffffffffffffffffffffff168152602001858152602001600073ffffffffffffffffffffffffffffffffffffffff168152602001602060405190810160405280600081525081526020018460018111156118ed57fe5b60018111156118f857fe5b81526020016000815250905080600360003373ffffffffffffffffffffffffffffffffffffffff1673ffffffffffffffffffffffffffffffffffffffff1681526020019081526020016000206000600154815260200190815260200160002060008201518160000155602082015181600101908051906020019061197d9291906127cd565b50604082015181600201908051906020019061199a9291906127cd565b5060608201518160030190805190602001906119b79291906127cd565b5060808201518160040190805190602001906119d49291906127cd565b5060a0820151816005015560c0820151816006015560e08201518160070160006101000a81548160ff02191690836001811115611a0d57fe5b02179055506101008201518160070160016101000a81548173ffffffffffffffffffffffffffffffffffffffff021916908373ffffffffffffffffffffffffffffffffffffffff160217905550610120820151816008019080519060200190611a779291906127cd565b506101408201518160090160006101000a81548173ffffffffffffffffffffffffffffffffffffffff021916908373ffffffffffffffffffffffffffffffffffffffff16021790555061016082015181600a019080519060200190611add9291906127cd565b5061018082015181600b0160006101000a81548160ff02191690836001811115611b0357fe5b02179055506101a082015181600c01559050503360046000600154815260200190815260200160002060006101000a81548173ffffffffffffffffffffffffffffffffffffffff021916908373ffffffffffffffffffffffffffffffffffffffff16021790555060028054806001018281611b7e919061284d565b91600052602060002090016000600154909190915055507f402f673cc548e2c188d2fad7a588cd609d36fdbc96d397d3b4f3f050897584b36001548a8a8a8a8a89604051808881526020018060200180602001806020018060200187815260200186815260200185810385528b818151815260200191508051906020019080838360005b83811015611c1d578082015181840152602081019050611c02565b50505050905090810190601f168015611c4a5780820380516001836020036101000a031916815260200191505b5085810384528a818151815260200191508051906020019080838360005b83811015611c83578082015181840152602081019050611c68565b50505050905090810190601f168015611cb05780820380516001836020036101000a031916815260200191505b50858103835289818151815260200191508051906020019080838360005b83811015611ce9578082015181840152602081019050611cce565b50505050905090810190601f168015611d165780820380516001836020036101000a031916815260200191505b50858103825288818151815260200191508051906020019080838360005b83811015611d4f578082015181840152602081019050611d34565b50505050905090810190601f168015611d7c5780820380516001836020036101000a031916815260200191505b509b50505050505050505050505060405180910390a1505050505050505050565b6000611da7612879565b611daf612879565b611db7612879565b611dbf612879565b600080600080611dcd6126f7565b60036000600460008e815260200190815260200160002060009054906101000a900473ffffffffffffffffffffffffffffffffffffffff1673ffffffffffffffffffffffffffffffffffffffff1673ffffffffffffffffffffffffffffffffffffffff16815260200190815260200160002060008c81526020019081526020016000206101c0604051908101604052908160008201548152602001600182018054600181600116156101000203166002900480601f016020809104026020016040519081016040528092919081815260200182805460018160011615610100020316600290048015611f005780601f10611ed557610100808354040283529160200191611f00565b820191906000526020600020905b815481529060010190602001808311611ee357829003601f168201915b50505050508152602001600282018054600181600116156101000203166002900480601f016020809104026020016040519081016040528092919081815260200182805460018160011615610100020316600290048015611fa25780601f10611f7757610100808354040283529160200191611fa2565b820191906000526020600020905b815481529060010190602001808311611f8557829003601f168201915b50505050508152602001600382018054600181600116156101000203166002900480601f0160208091040260200160405190810160405280929190818152602001828054600181600116156101000203166002900480156120445780601f1061201957610100808354040283529160200191612044565b820191906000526020600020905b81548152906001019060200180831161202757829003601f168201915b50505050508152602001600482018054600181600116156101000203166002900480601f0160208091040260200160405190810160405280929190818152602001828054600181600116156101000203166002900480156120e65780601f106120bb576101008083540402835291602001916120e6565b820191906000526020600020905b8154815290600101906020018083116120c957829003601f168201915b5050505050815260200160058201548152602001600682015481526020016007820160009054906101000a900460ff16600181111561212157fe5b600181111561212c57fe5b81526020016007820160019054906101000a900473ffffffffffffffffffffffffffffffffffffffff1673ffffffffffffffffffffffffffffffffffffffff1673ffffffffffffffffffffffffffffffffffffffff168152602001600882018054600181600116156101000203166002900480601f01602080910402602001604051908101604052809291908181526020018280546001816001161561010002031660029004801561221f5780601f106121f45761010080835404028352916020019161221f565b820191906000526020600020905b81548152906001019060200180831161220257829003601f168201915b505050505081526020016009820160009054906101000a900473ffffffffffffffffffffffffffffffffffffffff1673ffffffffffffffffffffffffffffffffffffffff1673ffffffffffffffffffffffffffffffffffffffff168152602001600a82018054600181600116156101000203166002900480601f0160208091040260200160405190810160405280929190818152602001828054600181600116156101000203166002900480156123175780601f106122ec57610100808354040283529160200191612317565b820191906000526020600020905b8154815290600101906020018083116122fa57829003601f168201915b50505050508152602001600b820160009054906101000a900460ff16600181111561233e57fe5b600181111561234957fe5b8152602001600c8201548152505090508a816000015114151561236b57600080fd5b806000015181602001518260400151836060015184608001518560a001518660c001518760e00151886101800151879750869650859550849450995099509950995099509950995099509950509193959799909294969850565b6123cd61288d565b600280548060200260200160405190810160405280929190818152602001828054801561241957602002820191906000526020600020905b815481526020019060010190808311612405575b5050505050905090565b60015481565b60008060006004600087815260200190815260200160002060009054906101000a900473ffffffffffffffffffffffffffffffffffffffff169150600360008373ffffffffffffffffffffffffffffffffffffffff1673ffffffffffffffffffffffffffffffffffffffff168152602001908152602001600020600087815260200190815260200160002090508581600001541415156124c857600080fd5b8060050154341415156124da57600080fd5b838160060154101515156124ed57600080fd5b600060018111156124fa57fe5b8160070160009054906101000a900460ff16600181111561251757fe5b14151561252357600080fd5b3373ffffffffffffffffffffffffffffffffffffffff16600073ffffffffffffffffffffffffffffffffffffffff161415151561255f57600080fd5b338160090160006101000a81548173ffffffffffffffffffffffffffffffffffffffff021916908373ffffffffffffffffffffffffffffffffffffffff1602179055508481600a0190805190602001906125ba9291906128a1565b506125c9816006015485612685565b816006018190555060008160060154116125e45760016125e7565b60005b8160070160006101000a81548160ff0219169083600181111561260657fe5b021790555061261981600c0154856126d9565b81600c01819055507f74577ff30f490942d95eea647903f857caf94c5dba61bc8bbaf49f2eea62f4c7866000836006015411612656576001612659565b60005b604051808381526020018260ff1681526020019250505060405180910390a16001925050509392505050565b600082821115151561269357fe5b818303905092915050565b60008060008414156126b357600091506126d2565b82840290508284828115156126c457fe5b041415156126ce57fe5b8091505b5092915050565b60008082840190508381101515156126ed57fe5b8091505092915050565b6101c06040519081016040528060008152602001612713612921565b8152602001612720612921565b815260200161272d612921565b815260200161273a612921565b815260200160008152602001600081526020016000600181111561275a57fe5b8152602001600073ffffffffffffffffffffffffffffffffffffffff168152602001612784612921565b8152602001600073ffffffffffffffffffffffffffffffffffffffff1681526020016127ae612921565b8152602001600060018111156127c057fe5b8152602001600081525090565b828054600181600116156101000203166002900490600052602060002090601f016020900481019282601f1061280e57805160ff191683800117855561283c565b8280016001018555821561283c579182015b8281111561283b578251825591602001919060010190612820565b5b5090506128499190612935565b5090565b815481835581811511612874578183600052602060002091820191016128739190612935565b5b505050565b602060405190810160405280600081525090565b602060405190810160405280600081525090565b828054600181600116156101000203166002900490600052602060002090601f016020900481019282601f106128e257805160ff1916838001178555612910565b82800160010185558215612910579182015b8281111561290f5782518255916020019190600101906128f4565b5b50905061291d9190612935565b5090565b602060405190810160405280600081525090565b61295791905b8082111561295357600081600090555060010161293b565b5090565b905600a165627a7a72305820e26d98eac1e3ca103221e7657acf296bee5dc96db7a74699daa4c2bfd9fdaa130029",
  "source": "pragma solidity ^0.4.18;\r\nimport \"./SafeMath.sol\";\r\n\r\n\r\ncontract Marketplace {\r\n    address private owner;\r\n    enum Status { InStock, Sold }\r\n    enum ProductCondition { New, Used }\r\n\r\n    uint public productIndex;\r\n    uint[] private productIds;\r\n    mapping (address => mapping(uint => Product)) private stores;\r\n    mapping (uint => address) private productIdInStore;\r\n\r\n    event LogNewProduct(\r\n        uint _productId, \r\n        string _name, \r\n        string _category, \r\n        string _imageLink, \r\n        string _descLink, \r\n        uint _price, \r\n        uint _productCondition\r\n    );\r\n\r\n    event LogProductSell(uint _productId, uint _status);\r\n\r\n    struct Product {\r\n        uint id;\r\n        string name;\r\n        string category;\r\n        string imageLink;\r\n        string descLink;\r\n        uint price;\r\n        uint quantity;\r\n        Status status;\r\n        address sellerAddr;\r\n        string sellerContact;\r\n        address buyerAddr;\r\n        string buyerContact;\r\n        ProductCondition condition;\r\n        uint forPayment;\r\n    }\r\n\r\n    function Marketplace() public {\r\n        productIndex = 0;\r\n        owner = msg.sender;\r\n    }\r\n\r\n    function() public payable {\r\n        require(false);\r\n    }\r\n\r\n    function newProduct(\r\n        string _name, \r\n        string _category, \r\n        string _imageLink, \r\n        string _descLink, \r\n        uint _price, \r\n        string _sellerContact,\r\n        uint _productCondition,\r\n        uint _quantity) public {\r\n        // Verify\r\n        require(address(0x0) != msg.sender);\r\n        require(_price > 0);\r\n        require(_quantity > 0);\r\n\r\n        productIndex += 1;\r\n        Product memory product = Product(\r\n            productIndex, \r\n            _name, \r\n            _category,\r\n            _imageLink, \r\n            _descLink, \r\n            _price, \r\n            _quantity,\r\n            Status.InStock, \r\n            msg.sender, \r\n            _sellerContact,\r\n            address(0x0),\r\n            \"\",\r\n            ProductCondition(_productCondition),\r\n            0\r\n        );\r\n        stores[msg.sender][productIndex] = product;\r\n        productIdInStore[productIndex] = msg.sender;\r\n        productIds.push(productIndex);\r\n\r\n        LogNewProduct(productIndex, _name, _category, _imageLink, _descLink, _price, _productCondition);\r\n    }\r\n\r\n    function getProduct(uint _productId) public view returns \r\n        (uint, string, string, string, string, uint, uint, Status, ProductCondition) {\r\n        Product memory product = stores[productIdInStore[_productId]][_productId];\r\n\r\n        // Verify\r\n        require(product.id == _productId);\r\n\r\n        return (\r\n            product.id, \r\n            product.name, \r\n            product.category, \r\n            product.imageLink, \r\n            product.descLink, \r\n            product.price, \r\n            product.quantity, \r\n            product.status, \r\n            product.condition\r\n        );\r\n    }\r\n\r\n    function getProducts() public view returns(uint[]) {\r\n        return productIds;\r\n    }\r\n\r\n    function getPrice(uint _productId, uint _quantity) public view returns (uint) {\r\n        address seller = productIdInStore[_productId];\r\n        Product memory product = stores[seller][_productId];\r\n\r\n        return SafeMath.mul(product.price, _quantity);\r\n    }\r\n\r\n    function update(uint _productId, uint _newQuantity) public view {\r\n        address seller = productIdInStore[_productId];\r\n\r\n        // Verify\r\n        require(seller == msg.sender);\r\n        Product memory product = stores[seller][_productId];\r\n\r\n        product.quantity = _newQuantity;\r\n    }\r\n\r\n    function buy(uint _productId, string _buyerContact, uint _quantity) public payable returns (bool) {\r\n        address seller = productIdInStore[_productId];\r\n        Product storage product = stores[seller][_productId];\r\n\r\n        // Verify\r\n        require(product.id == _productId);\r\n        require(msg.value == product.price);\r\n        require(product.quantity >= _quantity);\r\n        require(product.status == Status.InStock);\r\n        require(address(0x0) != msg.sender);\r\n\r\n        product.buyerAddr = msg.sender;\r\n        product.buyerContact = _buyerContact;\r\n        product.quantity = SafeMath.sub(product.quantity, _quantity);\r\n        product.status = product.quantity > 0 ? Status.InStock : Status.Sold;\r\n        product.forPayment = SafeMath.add(product.forPayment, _quantity);\r\n        \r\n        // Event\r\n        LogProductSell(_productId, product.quantity > 0 ? 0 : 1);\r\n        return true;\r\n    }\r\n\r\n    function withdraw(uint _productId, uint _quantity) public {\r\n        address seller = productIdInStore[_productId];\r\n        // Verify\r\n        require(seller == msg.sender);\r\n\r\n        Product memory product = stores[seller][_productId];\r\n        require(product.forPayment >= _quantity);\r\n\r\n        product.forPayment = SafeMath.sub(product.forPayment, _quantity);\r\n\r\n        // Transfer money\r\n        seller.transfer(SafeMath.mul(product.price, _quantity));\r\n    }\r\n}\r\n",
  "sourcePath": "E:\\Work\\marketplace_solidity\\contracts\\Marketplace.sol",
  "compiler": {
    "name": "solc",
    "version": "0.4.19+commit.c4cbbb05.Emscripten.clang"
  },
  "schemaVersion": "1.0.1",
  "updatedAt": "2018-03-28T19:40:23.581Z"
}